{
  "contractName": "DataReporting",
  "abi": [
    {
      "inputs": [],
      "payable": false,
      "stateMutability": "nonpayable",
      "type": "constructor"
    },
    {
      "constant": true,
      "inputs": [],
      "name": "dataObjectId",
      "outputs": [
        {
          "internalType": "string",
          "name": "",
          "type": "string"
        }
      ],
      "payable": false,
      "stateMutability": "view",
      "type": "function"
    },
    {
      "constant": true,
      "inputs": [],
      "name": "downloadable",
      "outputs": [
        {
          "internalType": "bool",
          "name": "",
          "type": "bool"
        }
      ],
      "payable": false,
      "stateMutability": "view",
      "type": "function"
    },
    {
      "constant": true,
      "inputs": [],
      "name": "status101",
      "outputs": [
        {
          "internalType": "bool",
          "name": "",
          "type": "bool"
        }
      ],
      "payable": false,
      "stateMutability": "view",
      "type": "function"
    },
    {
      "constant": false,
      "inputs": [
        {
          "internalType": "string",
          "name": "x",
          "type": "string"
        }
      ],
      "name": "setDataOjectId",
      "outputs": [],
      "payable": false,
      "stateMutability": "nonpayable",
      "type": "function"
    },
    {
      "constant": false,
      "inputs": [
        {
          "internalType": "uint8",
          "name": "nonce",
          "type": "uint8"
        },
        {
          "internalType": "bytes32",
          "name": "signature",
          "type": "bytes32"
        }
      ],
      "name": "getDataObjectId",
      "outputs": [
        {
          "internalType": "string",
          "name": "",
          "type": "string"
        }
      ],
      "payable": false,
      "stateMutability": "nonpayable",
      "type": "function"
    },
    {
      "constant": false,
      "inputs": [],
      "name": "expireDataObjectId",
      "outputs": [],
      "payable": false,
      "stateMutability": "nonpayable",
      "type": "function"
    }
  ],
  "bytecode": "0x6080604052336000806101000a81548173ffffffffffffffffffffffffffffffffffffffff021916908373ffffffffffffffffffffffffffffffffffffffff16021790555060405180602001604052806000815250600290805190602001906100699291906100b1565b506000600360006101000a81548160ff02191690831515021790555034801561009157600080fd5b5060008060146101000a81548160ff021916908315150217905550610156565b828054600181600116156101000203166002900490600052602060002090601f016020900481019282601f106100f257805160ff1916838001178555610120565b82800160010185558215610120579182015b8281111561011f578251825591602001919060010190610104565b5b50905061012d9190610131565b5090565b61015391905b8082111561014f576000816000905550600101610137565b5090565b90565b61079d806101656000396000f3fe608060405234801561001057600080fd5b50600436106100625760003560e01c806335ee140c146100675780637730bb57146100ea578063b22c2f171461010c578063b3261f5f14610116578063b64285f214610138578063d5b11d27146101ec575b600080fd5b61006f6102a7565b6040518080602001828103825283818151815260200191508051906020019080838360005b838110156100af578082015181840152602081019050610094565b50505050905090810190601f1680156100dc5780820380516001836020036101000a031916815260200191505b509250505060405180910390f35b6100f2610345565b604051808215151515815260200191505060405180910390f35b610114610358565b005b61011e6103bb565b604051808215151515815260200191505060405180910390f35b6101716004803603604081101561014e57600080fd5b81019080803560ff169060200190929190803590602001909291905050506103ce565b6040518080602001828103825283818151815260200191508051906020019080838360005b838110156101b1578082015181840152602081019050610196565b50505050905090810190601f1680156101de5780820380516001836020036101000a031916815260200191505b509250505060405180910390f35b6102a56004803603602081101561020257600080fd5b810190808035906020019064010000000081111561021f57600080fd5b82018360208201111561023157600080fd5b8035906020019184600183028401116401000000008311171561025357600080fd5b91908080601f016020809104026020016040519081016040528093929190818152602001838380828437600081840152601f19601f8201169050808301925050505050505091929192905050506105c3565b005b60028054600181600116156101000203166002900480601f01602080910402602001604051908101604052809291908181526020018280546001816001161561010002031660029004801561033d5780601f106103125761010080835404028352916020019161033d565b820191906000526020600020905b81548152906001019060200180831161032057829003601f168201915b505050505081565b600060149054906101000a900460ff1681565b6000809054906101000a900473ffffffffffffffffffffffffffffffffffffffff1673ffffffffffffffffffffffffffffffffffffffff163373ffffffffffffffffffffffffffffffffffffffff16146103b157600080fd5b6103b9610651565b565b600360009054906101000a900460ff1681565b6060600160008460ff1660ff16815260200190815260200160002060009054906101000a900460ff1661040057600080fd5b60018060008560ff1660ff16815260200190815260200160002060006101000a81548160ff021916908315150217905550600160008460ff1660ff16815260200190815260200160002060009054906101000a900460ff16600360006101000a81548160ff0219169083151502179055506000338430604051602001808473ffffffffffffffffffffffffffffffffffffffff1673ffffffffffffffffffffffffffffffffffffffff1660601b81526014018360ff1660ff1660f81b81526001018273ffffffffffffffffffffffffffffffffffffffff1673ffffffffffffffffffffffffffffffffffffffff1660601b8152601401935050505060405160208183030381529060405280519060200120905082811461051f57600080fd5b60028054600181600116156101000203166002900480601f0160208091040260200160405190810160405280929190818152602001828054600181600116156101000203166002900480156105b55780601f1061058a576101008083540402835291602001916105b5565b820191906000526020600020905b81548152906001019060200180831161059857829003601f168201915b505050505091505092915050565b6000809054906101000a900473ffffffffffffffffffffffffffffffffffffffff1673ffffffffffffffffffffffffffffffffffffffff163373ffffffffffffffffffffffffffffffffffffffff161461061c57600080fd5b806002908051906020019061063292919061067b565b506001600060146101000a81548160ff02191690831515021790555050565b6002600061065f91906106fb565b60008060146101000a81548160ff021916908315150217905550565b828054600181600116156101000203166002900490600052602060002090601f016020900481019282601f106106bc57805160ff19168380011785556106ea565b828001600101855582156106ea579182015b828111156106e95782518255916020019190600101906106ce565b5b5090506106f79190610743565b5090565b50805460018160011615610100020316600290046000825580601f106107215750610740565b601f01602090049060005260206000209081019061073f9190610743565b5b50565b61076591905b80821115610761576000816000905550600101610749565b5090565b9056fea265627a7a7231582085cf6b00fc880cb704adab5f72ba67a3bc54beb255be8c5cdf32fee1d74e618764736f6c634300050c0032",
  "source": "pragma solidity ^0.5.0;\r\n\r\ncontract DataReporting {\r\n\r\n  address owner = msg.sender;\r\n  \r\n  bool public downloadable; // It set true when owner set DataObjectId\r\n  mapping(uint8 => bool) usedNonces;\r\n  string public dataObjectId = \"\"; //Owner takes a data object id when he uploads a file to database\r\n  bool public status101 = false;\r\n  constructor() public {\r\n      downloadable = false;\r\n  }\r\n\r\n  function setDataOjectId(string memory x) public {\r\n    require(msg.sender == owner);\r\n    dataObjectId = x;\r\n    downloadable = true;\r\n  }\r\n\r\n  function getDataObjectId(uint8 nonce, bytes32 signature) public returns(string memory) {\r\n      \r\n      require(usedNonces[nonce]);\r\n      usedNonces[nonce] = true;\r\n      status101 = usedNonces[nonce];\r\n      \r\n      bytes32 message = keccak256(abi.encodePacked(msg.sender, nonce, this));\r\n      \r\n      require(message == signature);\r\n      \r\n      return dataObjectId;\r\n  }\r\n\r\n  ///If receiver doesn't take data object ID within 5 minutes, owner remove ID \r\n  function expireDataObjectId() public {\r\n    //Todo - implement timer to check it over 5 minutes since owner assigned the ID\r\n    require(msg.sender == owner);\r\n    initDataObjectId();\r\n  }\r\n  \r\n  function initDataObjectId() internal{\r\n    delete dataObjectId;\r\n    downloadable = false;\r\n  }\r\n\r\n}",
  "sourcePath": "E:/workspace/training/bbdfs-v1/contracts/DataReporting.sol",
  "compiler": {
    "name": "solc",
    "version": "0.5.12+commit.7709ece9.Emscripten.clang"
  },
  "schemaVersion": "3.0.18",
  "updatedAt": "2019-12-09T22:54:49.341Z",
  "networkType": "ethereum",
  "devdoc": {
    "methods": {}
  },
  "userdoc": {
    "methods": {
      "expireDataObjectId()": {
        "notice": "If receiver doesn't take data object ID within 5 minutes, owner remove ID "
      }
    }
  }
}