{
  "contractName": "DataReporting",
  "abi": [
    {
      "constant": true,
      "inputs": [],
      "name": "dataObjectId",
      "outputs": [
        {
          "name": "",
          "type": "string"
        }
      ],
      "payable": false,
      "stateMutability": "view",
      "type": "function",
      "signature": "0x35ee140c"
    },
    {
      "constant": true,
      "inputs": [],
      "name": "downloadable",
      "outputs": [
        {
          "name": "",
          "type": "bool"
        }
      ],
      "payable": false,
      "stateMutability": "view",
      "type": "function",
      "signature": "0x7730bb57"
    },
    {
      "constant": true,
      "inputs": [],
      "name": "status101",
      "outputs": [
        {
          "name": "",
          "type": "bool"
        }
      ],
      "payable": false,
      "stateMutability": "view",
      "type": "function",
      "signature": "0xb3261f5f"
    },
    {
      "inputs": [],
      "payable": false,
      "stateMutability": "nonpayable",
      "type": "constructor",
      "signature": "constructor"
    },
    {
      "constant": false,
      "inputs": [
        {
          "name": "x",
          "type": "string"
        }
      ],
      "name": "setDataOjectId",
      "outputs": [],
      "payable": false,
      "stateMutability": "nonpayable",
      "type": "function",
      "signature": "0xd5b11d27"
    },
    {
      "constant": false,
      "inputs": [
        {
          "name": "nonce",
          "type": "uint8"
        },
        {
          "name": "signature",
          "type": "bytes32"
        }
      ],
      "name": "getDataObjectId",
      "outputs": [
        {
          "name": "",
          "type": "string"
        }
      ],
      "payable": false,
      "stateMutability": "nonpayable",
      "type": "function",
      "signature": "0xb64285f2"
    },
    {
      "constant": false,
      "inputs": [
        {
          "name": "nonce",
          "type": "uint8"
        },
        {
          "name": "signature",
          "type": "bytes32"
        }
      ],
      "name": "setNonce",
      "outputs": [],
      "payable": false,
      "stateMutability": "nonpayable",
      "type": "function",
      "signature": "0x620c46db"
    },
    {
      "constant": false,
      "inputs": [],
      "name": "expireDataObjectId",
      "outputs": [],
      "payable": false,
      "stateMutability": "nonpayable",
      "type": "function",
      "signature": "0xb22c2f17"
    }
  ],
  "bytecode": "0x6080604052336000806101000a81548173ffffffffffffffffffffffffffffffffffffffff021916908373ffffffffffffffffffffffffffffffffffffffff16021790555060206040519081016040528060008152506002908051906020019061006a9291906100d9565b506020604051908101604052806000815250600490805190602001906100919291906100d9565b5034801561009e57600080fd5b5060008060146101000a81548160ff0219169083151502179055506000600360006101000a81548160ff02191690831515021790555061017e565b828054600181600116156101000203166002900490600052602060002090601f016020900481019282601f1061011a57805160ff1916838001178555610148565b82800160010185558215610148579182015b8281111561014757825182559160200191906001019061012c565b5b5090506101559190610159565b5090565b61017b91905b8082111561017757600081600090555060010161015f565b5090565b90565b610aef8061018d6000396000f3fe608060405260043610610083576000357c0100000000000000000000000000000000000000000000000000000000900463ffffffff16806335ee140c14610088578063620c46db146101185780637730bb5714610160578063b22c2f171461018f578063b3261f5f146101a6578063b64285f2146101d5578063d5b11d2714610296575b600080fd5b34801561009457600080fd5b5061009d61035e565b6040518080602001828103825283818151815260200191508051906020019080838360005b838110156100dd5780820151818401526020810190506100c2565b50505050905090810190601f16801561010a5780820380516001836020036101000a031916815260200191505b509250505060405180910390f35b34801561012457600080fd5b5061015e6004803603604081101561013b57600080fd5b81019080803560ff169060200190929190803590602001909291905050506103fc565b005b34801561016c57600080fd5b506101756105ce565b604051808215151515815260200191505060405180910390f35b34801561019b57600080fd5b506101a46105e1565b005b3480156101b257600080fd5b506101bb610646565b604051808215151515815260200191505060405180910390f35b3480156101e157600080fd5b5061021b600480360360408110156101f857600080fd5b81019080803560ff16906020019092919080359060200190929190505050610659565b6040518080602001828103825283818151815260200191508051906020019080838360005b8381101561025b578082015181840152602081019050610240565b50505050905090810190601f1680156102885780820380516001836020036101000a031916815260200191505b509250505060405180910390f35b3480156102a257600080fd5b5061035c600480360360208110156102b957600080fd5b81019080803590602001906401000000008111156102d657600080fd5b8201836020820111156102e857600080fd5b8035906020019184600183028401116401000000008311171561030a57600080fd5b91908080601f016020809104026020016040519081016040528093929190818152602001838380828437600081840152601f19601f82011690508083019250505050505050919291929050505061091c565b005b60028054600181600116156101000203166002900480601f0160208091040260200160405190810160405280929190818152602001828054600181600116156101000203166002900480156103f45780601f106103c9576101008083540402835291602001916103f4565b820191906000526020600020905b8154815290600101906020018083116103d757829003601f168201915b505050505081565b6000338330604051602001808473ffffffffffffffffffffffffffffffffffffffff1673ffffffffffffffffffffffffffffffffffffffff166c010000000000000000000000000281526014018360ff1660ff167f01000000000000000000000000000000000000000000000000000000000000000281526001018273ffffffffffffffffffffffffffffffffffffffff1673ffffffffffffffffffffffffffffffffffffffff166c010000000000000000000000000281526014019350505050604051602081830303815290604052805190602001209050818114151561054c576040517f08c379a00000000000000000000000000000000000000000000000000000000081526004018080602001828103825260178152602001807f4974206973206e6f742066726f6d20726563656976657200000000000000000081525060200191505060405180910390fd5b60018060008560ff1660ff16815260200190815260200160002060006101000a81548160ff0219169083151502179055506040805190810160405280600581526020017f74616b656e000000000000000000000000000000000000000000000000000000815250600290805190602001906105c89291906109d6565b50505050565b600060149054906101000a900460ff1681565b6000809054906101000a900473ffffffffffffffffffffffffffffffffffffffff1673ffffffffffffffffffffffffffffffffffffffff163373ffffffffffffffffffffffffffffffffffffffff1614151561063c57600080fd5b6106446109ac565b565b600360009054906101000a900460ff1681565b6060600160008460ff1660ff16815260200190815260200160002060009054906101000a900460ff161515156106f7576040517f08c379a00000000000000000000000000000000000000000000000000000000081526004018080602001828103825260188152602001807f497420697320616c726561647920646f776e6c6f61646564000000000000000081525060200191505060405180910390fd5b60018060008560ff1660ff16815260200190815260200160002060006101000a81548160ff0219169083151502179055506000338430604051602001808473ffffffffffffffffffffffffffffffffffffffff1673ffffffffffffffffffffffffffffffffffffffff166c010000000000000000000000000281526014018360ff1660ff167f01000000000000000000000000000000000000000000000000000000000000000281526001018273ffffffffffffffffffffffffffffffffffffffff1673ffffffffffffffffffffffffffffffffffffffff166c0100000000000000000000000002815260140193505050506040516020818303038152906040528051906020012090508281141515610878576040517f08c379a00000000000000000000000000000000000000000000000000000000081526004018080602001828103825260178152602001807f4d657373616765206973206e6f74206f726967696e616c00000000000000000081525060200191505060405180910390fd5b60028054600181600116156101000203166002900480601f01602080910402602001604051908101604052809291908181526020018280546001816001161561010002031660029004801561090e5780601f106108e35761010080835404028352916020019161090e565b820191906000526020600020905b8154815290600101906020018083116108f157829003601f168201915b505050505091505092915050565b6000809054906101000a900473ffffffffffffffffffffffffffffffffffffffff1673ffffffffffffffffffffffffffffffffffffffff163373ffffffffffffffffffffffffffffffffffffffff1614151561097757600080fd5b806002908051906020019061098d9291906109d6565b506001600060146101000a81548160ff02191690831515021790555050565b600260006109ba9190610a56565b60008060146101000a81548160ff021916908315150217905550565b828054600181600116156101000203166002900490600052602060002090601f016020900481019282601f10610a1757805160ff1916838001178555610a45565b82800160010185558215610a45579182015b82811115610a44578251825591602001919060010190610a29565b5b509050610a529190610a9e565b5090565b50805460018160011615610100020316600290046000825580601f10610a7c5750610a9b565b601f016020900490600052602060002090810190610a9a9190610a9e565b5b50565b610ac091905b80821115610abc576000816000905550600101610aa4565b5090565b9056fea165627a7a72305820d9ed00c2a3593b62e2cd729b7a07938d0296942a5ee09fe0ecf8ce0a82bc73ce0029",
  "source": "pragma solidity ^0.5.0;\r\n\r\ncontract DataReporting {\r\n\r\n  address owner = msg.sender;\r\n  \r\n  bool public downloadable; // It set true when owner set DataObjectId\r\n  mapping(uint8 => bool) usedNonces;\r\n  string public dataObjectId = \"\"; //Owner takes a data object id when he uploads a file to database\r\n  bool public status101;\r\n  string _sender = \"\";\r\n  constructor() public {\r\n      downloadable = false;\r\n      status101 = false;\r\n  }\r\n\r\n  function setDataOjectId(string memory x) public {\r\n    require(msg.sender == owner);\r\n    dataObjectId = x;\r\n    downloadable = true;\r\n  }\r\n\r\n  function getDataObjectId(uint8 nonce, bytes32 signature) public returns(string memory) {\r\n      require(!usedNonces[nonce], \"It is already downloaded\");\r\n      usedNonces[nonce] = true;\r\n      \r\n      bytes32 message = keccak256(abi.encodePacked(msg.sender, nonce, this));\r\n      \r\n      require(message == signature, \"Message is not original\");\r\n      \r\n      return dataObjectId;\r\n  }\r\n\r\n  function setNonce(uint8 nonce, bytes32 signature) public {\r\n    bytes32 message = keccak256(abi.encodePacked(msg.sender, nonce, this));\r\n    require(message == signature, \"It is not from receiver\");\r\n    usedNonces[nonce] = true;\r\n    dataObjectId = \"taken\";\r\n  }\r\n\r\n  ///If receiver doesn't take data object ID within 5 minutes, owner remove ID \r\n  function expireDataObjectId() public {\r\n    //Todo - implement timer to check it over 5 minutes since owner assigned the ID\r\n    require(msg.sender == owner);\r\n    initDataObjectId();\r\n  }\r\n  \r\n  function initDataObjectId() internal{\r\n    delete dataObjectId;\r\n    downloadable = false;\r\n  }\r\n\r\n}",
  "sourcePath": "C:/Users/byeun/workspace/bbdfs-v1/contracts/DataReporting.sol",
  "compiler": {
    "name": "solc",
    "version": "0.5.0+commit.1d4f565a.Emscripten.clang"
  },
  "schemaVersion": "3.0.1",
  "updatedAt": "2019-12-10T13:39:19.343Z",
  "devdoc": {
    "methods": {}
  },
  "userdoc": {
    "methods": {
      "expireDataObjectId()": {
        "notice": "If receiver doesn't take data object ID within 5 minutes, owner remove ID "
      }
    }
  }
}