{
  "contractName": "DataReporting",
  "abi": [
    {
      "constant": true,
      "inputs": [],
      "name": "downloadable",
      "outputs": [
        {
          "name": "",
          "type": "bool"
        }
      ],
      "payable": false,
      "stateMutability": "view",
      "type": "function",
      "signature": "0x7730bb57"
    },
    {
      "inputs": [],
      "payable": false,
      "stateMutability": "nonpayable",
      "type": "constructor",
      "signature": "constructor"
    },
    {
      "constant": false,
      "inputs": [
        {
          "name": "x",
          "type": "string"
        }
      ],
      "name": "setDataOjectId",
      "outputs": [],
      "payable": false,
      "stateMutability": "nonpayable",
      "type": "function",
      "signature": "0xd5b11d27"
    },
    {
      "constant": false,
      "inputs": [
        {
          "name": "nonce",
          "type": "uint256"
        },
        {
          "name": "signature",
          "type": "bytes32"
        }
      ],
      "name": "getDataObjectId",
      "outputs": [
        {
          "name": "",
          "type": "string"
        }
      ],
      "payable": false,
      "stateMutability": "nonpayable",
      "type": "function",
      "signature": "0xa90262b4"
    },
    {
      "constant": false,
      "inputs": [],
      "name": "expireDataObjectId",
      "outputs": [],
      "payable": false,
      "stateMutability": "nonpayable",
      "type": "function",
      "signature": "0xb22c2f17"
    }
  ],
  "bytecode": "0x6080604052336000806101000a81548173ffffffffffffffffffffffffffffffffffffffff021916908373ffffffffffffffffffffffffffffffffffffffff16021790555034801561005057600080fd5b5060008060146101000a81548160ff0219169083151502179055506106498061007a6000396000f3fe608060405260043610610062576000357c0100000000000000000000000000000000000000000000000000000000900463ffffffff1680637730bb5714610067578063a90262b414610096578063b22c2f1714610154578063d5b11d271461016b575b600080fd5b34801561007357600080fd5b5061007c610233565b604051808215151515815260200191505060405180910390f35b3480156100a257600080fd5b506100d9600480360360408110156100b957600080fd5b810190808035906020019092919080359060200190929190505050610246565b6040518080602001828103825283818151815260200191508051906020019080838360005b838110156101195780820151818401526020810190506100fe565b50505050905090810190601f1680156101465780820380516001836020036101000a031916815260200191505b509250505060405180910390f35b34801561016057600080fd5b50610169610411565b005b34801561017757600080fd5b506102316004803603602081101561018e57600080fd5b81019080803590602001906401000000008111156101ab57600080fd5b8201836020820111156101bd57600080fd5b803590602001918460018302840111640100000000831117156101df57600080fd5b91908080601f016020809104026020016040519081016040528093929190818152602001838380828437600081840152601f19601f820116905080830192505050505050509192919290505050610476565b005b600060149054906101000a900460ff1681565b60606001600084815260200190815260200160002060009054906101000a900460ff1615151561027557600080fd5b600180600085815260200190815260200160002060006101000a81548160ff0219169083151502179055506000338430604051602001808473ffffffffffffffffffffffffffffffffffffffff1673ffffffffffffffffffffffffffffffffffffffff166c010000000000000000000000000281526014018381526020018273ffffffffffffffffffffffffffffffffffffffff1673ffffffffffffffffffffffffffffffffffffffff166c010000000000000000000000000281526014019350505050604051602081830303815290604052805190602001209050828114151561035f57600080fd5b606060028054600181600116156101000203166002900480601f0160208091040260200160405190810160405280929190818152602001828054600181600116156101000203166002900480156103f75780601f106103cc576101008083540402835291602001916103f7565b820191906000526020600020905b8154815290600101906020018083116103da57829003601f168201915b50505050509050610406610506565b809250505092915050565b6000809054906101000a900473ffffffffffffffffffffffffffffffffffffffff1673ffffffffffffffffffffffffffffffffffffffff163373ffffffffffffffffffffffffffffffffffffffff1614151561046c57600080fd5b610474610506565b565b6000809054906101000a900473ffffffffffffffffffffffffffffffffffffffff1673ffffffffffffffffffffffffffffffffffffffff163373ffffffffffffffffffffffffffffffffffffffff161415156104d157600080fd5b80600290805190602001906104e7929190610530565b506001600060146101000a81548160ff02191690831515021790555050565b6002600061051491906105b0565b60008060146101000a81548160ff021916908315150217905550565b828054600181600116156101000203166002900490600052602060002090601f016020900481019282601f1061057157805160ff191683800117855561059f565b8280016001018555821561059f579182015b8281111561059e578251825591602001919060010190610583565b5b5090506105ac91906105f8565b5090565b50805460018160011615610100020316600290046000825580601f106105d657506105f5565b601f0160209004906000526020600020908101906105f491906105f8565b5b50565b61061a91905b808211156106165760008160009055506001016105fe565b5090565b9056fea165627a7a72305820a1491dcf554a7f263c3ef93d9f7946f65d7a5bb63a9ce6f390abcfdf735cf1e20029",
  "source": "pragma solidity ^0.5.0;\r\n\r\ncontract DataReporting {\r\n\r\n  address owner = msg.sender;\r\n  \r\n  bool public downloadable; // It set true when owner set DataObjectId\r\n  mapping(uint256 => bool) usedNonces;\r\n  string dataObjectId; //Owner takes a data object id when he uploads a file to database\r\n\r\n  constructor() public {\r\n      downloadable = false;\r\n  }\r\n\r\n  function setDataOjectId(string memory x) public {\r\n    require(msg.sender == owner);\r\n    dataObjectId = x;\r\n    downloadable = true;\r\n  }\r\n\r\n  function getDataObjectId(uint256 nonce, bytes32 signature) public returns(string memory) {\r\n      require(!usedNonces[nonce]);\r\n      usedNonces[nonce] = true;\r\n      \r\n      bytes32 message = keccak256(abi.encodePacked(msg.sender, nonce, this));\r\n      \r\n      require(message == signature);\r\n      string memory resId = dataObjectId; // Remove assigned dataOjectId value once it returns\r\n      initDataObjectId();\r\n      return resId;\r\n  }\r\n\r\n  ///If receiver doesn't take data object ID within 5 minutes, owner remove ID \r\n  function expireDataObjectId() public {\r\n    //Todo - implement timer to check it over 5 minutes since owner assigned the ID\r\n    require(msg.sender == owner);\r\n    initDataObjectId();\r\n  }\r\n  \r\n  function initDataObjectId() internal{\r\n    delete dataObjectId;\r\n    downloadable = false;\r\n  }\r\n\r\n}",
  "sourcePath": "C:/Users/byeun/workspace/training/bbdfs-v1/contracts/DataReporting.sol",
  "compiler": {
    "name": "solc",
    "version": "0.5.0+commit.1d4f565a.Emscripten.clang"
  },
  "schemaVersion": "3.0.1",
  "updatedAt": "2019-11-29T09:29:28.032Z",
  "devdoc": {
    "methods": {}
  },
  "userdoc": {
    "methods": {
      "expireDataObjectId()": {
        "notice": "If receiver doesn't take data object ID within 5 minutes, owner remove ID "
      }
    }
  }
}