{
  "contractName": "DataReporting",
  "abi": [
    {
      "inputs": [],
      "payable": false,
      "stateMutability": "nonpayable",
      "type": "constructor"
    },
    {
      "constant": true,
      "inputs": [],
      "name": "dataObjectId",
      "outputs": [
        {
          "internalType": "string",
          "name": "",
          "type": "string"
        }
      ],
      "payable": false,
      "stateMutability": "view",
      "type": "function"
    },
    {
      "constant": true,
      "inputs": [],
      "name": "downloadable",
      "outputs": [
        {
          "internalType": "bool",
          "name": "",
          "type": "bool"
        }
      ],
      "payable": false,
      "stateMutability": "view",
      "type": "function"
    },
    {
      "constant": false,
      "inputs": [
        {
          "internalType": "string",
          "name": "x",
          "type": "string"
        }
      ],
      "name": "setDataOjectId",
      "outputs": [],
      "payable": false,
      "stateMutability": "nonpayable",
      "type": "function"
    },
    {
      "constant": false,
      "inputs": [
        {
          "internalType": "uint8",
          "name": "nonce",
          "type": "uint8"
        },
        {
          "internalType": "bytes32",
          "name": "signature",
          "type": "bytes32"
        }
      ],
      "name": "getDataObjectId",
      "outputs": [
        {
          "internalType": "string",
          "name": "",
          "type": "string"
        }
      ],
      "payable": false,
      "stateMutability": "nonpayable",
      "type": "function"
    },
    {
      "constant": false,
      "inputs": [],
      "name": "expireDataObjectId",
      "outputs": [],
      "payable": false,
      "stateMutability": "nonpayable",
      "type": "function"
    }
  ],
  "bytecode": "0x6080604052336000806101000a81548173ffffffffffffffffffffffffffffffffffffffff021916908373ffffffffffffffffffffffffffffffffffffffff1602179055506040518060400160405280600981526020017f6f626a65637420696400000000000000000000000000000000000000000000008152506002908051906020019061008f9291906100bc565b5034801561009c57600080fd5b5060008060146101000a81548160ff021916908315150217905550610161565b828054600181600116156101000203166002900490600052602060002090601f016020900481019282601f106100fd57805160ff191683800117855561012b565b8280016001018555821561012b579182015b8281111561012a57825182559160200191906001019061010f565b5b509050610138919061013c565b5090565b61015e91905b8082111561015a576000816000905550600101610142565b5090565b90565b610718806101706000396000f3fe608060405234801561001057600080fd5b50600436106100575760003560e01c806335ee140c1461005c5780637730bb57146100df578063b22c2f1714610101578063b64285f21461010b578063d5b11d27146101bf575b600080fd5b61006461027a565b6040518080602001828103825283818151815260200191508051906020019080838360005b838110156100a4578082015181840152602081019050610089565b50505050905090810190601f1680156100d15780820380516001836020036101000a031916815260200191505b509250505060405180910390f35b6100e7610318565b604051808215151515815260200191505060405180910390f35b61010961032b565b005b6101446004803603604081101561012157600080fd5b81019080803560ff1690602001909291908035906020019092919050505061038e565b6040518080602001828103825283818151815260200191508051906020019080838360005b83811015610184578082015181840152602081019050610169565b50505050905090810190601f1680156101b15780820380516001836020036101000a031916815260200191505b509250505060405180910390f35b610278600480360360208110156101d557600080fd5b81019080803590602001906401000000008111156101f257600080fd5b82018360208201111561020457600080fd5b8035906020019184600183028401116401000000008311171561022657600080fd5b91908080601f016020809104026020016040519081016040528093929190818152602001838380828437600081840152601f19601f82011690508083019250505050505050919291929050505061053e565b005b60028054600181600116156101000203166002900480601f0160208091040260200160405190810160405280929190818152602001828054600181600116156101000203166002900480156103105780601f106102e557610100808354040283529160200191610310565b820191906000526020600020905b8154815290600101906020018083116102f357829003601f168201915b505050505081565b600060149054906101000a900460ff1681565b6000809054906101000a900473ffffffffffffffffffffffffffffffffffffffff1673ffffffffffffffffffffffffffffffffffffffff163373ffffffffffffffffffffffffffffffffffffffff161461038457600080fd5b61038c6105cc565b565b6060600160008460ff16815260200190815260200160002060009054906101000a900460ff16156103be57600080fd5b60018060008560ff16815260200190815260200160002060006101000a81548160ff0219169083151502179055506000338430604051602001808473ffffffffffffffffffffffffffffffffffffffff1673ffffffffffffffffffffffffffffffffffffffff1660601b81526014018360ff1660ff1660f81b81526001018273ffffffffffffffffffffffffffffffffffffffff1673ffffffffffffffffffffffffffffffffffffffff1660601b8152601401935050505060405160208183030381529060405280519060200120905082811461049a57600080fd5b60028054600181600116156101000203166002900480601f0160208091040260200160405190810160405280929190818152602001828054600181600116156101000203166002900480156105305780601f1061050557610100808354040283529160200191610530565b820191906000526020600020905b81548152906001019060200180831161051357829003601f168201915b505050505091505092915050565b6000809054906101000a900473ffffffffffffffffffffffffffffffffffffffff1673ffffffffffffffffffffffffffffffffffffffff163373ffffffffffffffffffffffffffffffffffffffff161461059757600080fd5b80600290805190602001906105ad9291906105f6565b506001600060146101000a81548160ff02191690831515021790555050565b600260006105da9190610676565b60008060146101000a81548160ff021916908315150217905550565b828054600181600116156101000203166002900490600052602060002090601f016020900481019282601f1061063757805160ff1916838001178555610665565b82800160010185558215610665579182015b82811115610664578251825591602001919060010190610649565b5b50905061067291906106be565b5090565b50805460018160011615610100020316600290046000825580601f1061069c57506106bb565b601f0160209004906000526020600020908101906106ba91906106be565b5b50565b6106e091905b808211156106dc5760008160009055506001016106c4565b5090565b9056fea265627a7a7231582035f0ae0d34aaaf006a141354a06b394c68d30c83bed0491d4e97b938328ac59c64736f6c634300050c0032",
  "source": "pragma solidity ^0.5.0;\r\n\r\ncontract DataReporting {\r\n\r\n  address owner = msg.sender;\r\n  \r\n  bool public downloadable; // It set true when owner set DataObjectId\r\n  mapping(uint256 => bool) usedNonces;\r\n  string public dataObjectId = \"object id\"; //Owner takes a data object id when he uploads a file to database\r\n\r\n  constructor() public {\r\n      downloadable = false;\r\n  }\r\n\r\n  function setDataOjectId(string memory x) public {\r\n    require(msg.sender == owner);\r\n    dataObjectId = x;\r\n    downloadable = true;\r\n  }\r\n\r\n  function getDataObjectId(uint8 nonce, bytes32 signature) public returns(string memory) {\r\n      \r\n      require(!usedNonces[nonce]);\r\n      usedNonces[nonce] = true;\r\n      \r\n      bytes32 message = keccak256(abi.encodePacked(msg.sender, nonce, this));\r\n      \r\n      require(message == signature);\r\n      \r\n      return dataObjectId;\r\n  }\r\n\r\n  ///If receiver doesn't take data object ID within 5 minutes, owner remove ID \r\n  function expireDataObjectId() public {\r\n    //Todo - implement timer to check it over 5 minutes since owner assigned the ID\r\n    require(msg.sender == owner);\r\n    initDataObjectId();\r\n  }\r\n  \r\n  function initDataObjectId() internal{\r\n    delete dataObjectId;\r\n    downloadable = false;\r\n  }\r\n\r\n}",
  "sourcePath": "E:/workspace/training/bbdfs-v1/contracts/DataReporting.sol",
  "compiler": {
    "name": "solc",
    "version": "0.5.12+commit.7709ece9.Emscripten.clang"
  },
  "schemaVersion": "3.0.18",
  "updatedAt": "2019-12-08T14:57:24.128Z",
  "networkType": "ethereum",
  "devdoc": {
    "methods": {}
  },
  "userdoc": {
    "methods": {
      "expireDataObjectId()": {
        "notice": "If receiver doesn't take data object ID within 5 minutes, owner remove ID "
      }
    }
  }
}