{
  "contractName": "DataReporting",
  "abi": [
    {
      "constant": true,
      "inputs": [],
      "name": "dataObjectId",
      "outputs": [
        {
          "name": "",
          "type": "string"
        }
      ],
      "payable": false,
      "stateMutability": "view",
      "type": "function",
      "signature": "0x35ee140c"
    },
    {
      "constant": true,
      "inputs": [],
      "name": "downloadable",
      "outputs": [
        {
          "name": "",
          "type": "bool"
        }
      ],
      "payable": false,
      "stateMutability": "view",
      "type": "function",
      "signature": "0x7730bb57"
    },
    {
      "inputs": [],
      "payable": false,
      "stateMutability": "nonpayable",
      "type": "constructor",
      "signature": "constructor"
    },
    {
      "constant": false,
      "inputs": [
        {
          "name": "x",
          "type": "string"
        }
      ],
      "name": "setDataOjectId",
      "outputs": [],
      "payable": false,
      "stateMutability": "nonpayable",
      "type": "function",
      "signature": "0xd5b11d27"
    },
    {
      "constant": false,
      "inputs": [
        {
          "name": "nonce",
          "type": "uint256"
        },
        {
          "name": "signature",
          "type": "bytes32"
        }
      ],
      "name": "getDataObjectId",
      "outputs": [
        {
          "name": "",
          "type": "string"
        }
      ],
      "payable": false,
      "stateMutability": "nonpayable",
      "type": "function",
      "signature": "0xa90262b4"
    },
    {
      "constant": false,
      "inputs": [],
      "name": "expireDataObjectId",
      "outputs": [],
      "payable": false,
      "stateMutability": "nonpayable",
      "type": "function",
      "signature": "0xb22c2f17"
    }
  ],
  "bytecode": "0x6080604052336000806101000a81548173ffffffffffffffffffffffffffffffffffffffff021916908373ffffffffffffffffffffffffffffffffffffffff1602179055506040805190810160405280600981526020017f6f626a65637420696400000000000000000000000000000000000000000000008152506002908051906020019061008f9291906100bc565b5034801561009c57600080fd5b5060008060146101000a81548160ff021916908315150217905550610161565b828054600181600116156101000203166002900490600052602060002090601f016020900481019282601f106100fd57805160ff191683800117855561012b565b8280016001018555821561012b579182015b8281111561012a57825182559160200191906001019061010f565b5b509050610138919061013c565b5090565b61015e91905b8082111561015a576000816000905550600101610142565b5090565b90565b610782806101706000396000f3fe60806040526004361061006d576000357c0100000000000000000000000000000000000000000000000000000000900463ffffffff16806335ee140c146100725780637730bb5714610102578063a90262b414610131578063b22c2f17146101ef578063d5b11d2714610206575b600080fd5b34801561007e57600080fd5b506100876102ce565b6040518080602001828103825283818151815260200191508051906020019080838360005b838110156100c75780820151818401526020810190506100ac565b50505050905090810190601f1680156100f45780820380516001836020036101000a031916815260200191505b509250505060405180910390f35b34801561010e57600080fd5b5061011761036c565b604051808215151515815260200191505060405180910390f35b34801561013d57600080fd5b506101746004803603604081101561015457600080fd5b81019080803590602001909291908035906020019092919050505061037f565b6040518080602001828103825283818151815260200191508051906020019080838360005b838110156101b4578082015181840152602081019050610199565b50505050905090810190601f1680156101e15780820380516001836020036101000a031916815260200191505b509250505060405180910390f35b3480156101fb57600080fd5b5061020461054a565b005b34801561021257600080fd5b506102cc6004803603602081101561022957600080fd5b810190808035906020019064010000000081111561024657600080fd5b82018360208201111561025857600080fd5b8035906020019184600183028401116401000000008311171561027a57600080fd5b91908080601f016020809104026020016040519081016040528093929190818152602001838380828437600081840152601f19601f8201169050808301925050505050505091929192905050506105af565b005b60028054600181600116156101000203166002900480601f0160208091040260200160405190810160405280929190818152602001828054600181600116156101000203166002900480156103645780601f1061033957610100808354040283529160200191610364565b820191906000526020600020905b81548152906001019060200180831161034757829003601f168201915b505050505081565b600060149054906101000a900460ff1681565b60606001600084815260200190815260200160002060009054906101000a900460ff161515156103ae57600080fd5b600180600085815260200190815260200160002060006101000a81548160ff0219169083151502179055506000338430604051602001808473ffffffffffffffffffffffffffffffffffffffff1673ffffffffffffffffffffffffffffffffffffffff166c010000000000000000000000000281526014018381526020018273ffffffffffffffffffffffffffffffffffffffff1673ffffffffffffffffffffffffffffffffffffffff166c010000000000000000000000000281526014019350505050604051602081830303815290604052805190602001209050828114151561049857600080fd5b606060028054600181600116156101000203166002900480601f0160208091040260200160405190810160405280929190818152602001828054600181600116156101000203166002900480156105305780601f1061050557610100808354040283529160200191610530565b820191906000526020600020905b81548152906001019060200180831161051357829003601f168201915b5050505050905061053f61063f565b809250505092915050565b6000809054906101000a900473ffffffffffffffffffffffffffffffffffffffff1673ffffffffffffffffffffffffffffffffffffffff163373ffffffffffffffffffffffffffffffffffffffff161415156105a557600080fd5b6105ad61063f565b565b6000809054906101000a900473ffffffffffffffffffffffffffffffffffffffff1673ffffffffffffffffffffffffffffffffffffffff163373ffffffffffffffffffffffffffffffffffffffff1614151561060a57600080fd5b8060029080519060200190610620929190610669565b506001600060146101000a81548160ff02191690831515021790555050565b6002600061064d91906106e9565b60008060146101000a81548160ff021916908315150217905550565b828054600181600116156101000203166002900490600052602060002090601f016020900481019282601f106106aa57805160ff19168380011785556106d8565b828001600101855582156106d8579182015b828111156106d75782518255916020019190600101906106bc565b5b5090506106e59190610731565b5090565b50805460018160011615610100020316600290046000825580601f1061070f575061072e565b601f01602090049060005260206000209081019061072d9190610731565b5b50565b61075391905b8082111561074f576000816000905550600101610737565b5090565b9056fea165627a7a72305820e0b303a528f00ed6e1a112f706761ad1bda8a138f2d326db1823ec020622c4ff0029",
  "source": "pragma solidity ^0.5.0;\r\n\r\ncontract DataReporting {\r\n\r\n  address owner = msg.sender;\r\n  \r\n  bool public downloadable; // It set true when owner set DataObjectId\r\n  mapping(uint256 => bool) usedNonces;\r\n  string public dataObjectId = \"object id\"; //Owner takes a data object id when he uploads a file to database\r\n\r\n  constructor() public {\r\n      downloadable = false;\r\n  }\r\n\r\n  function setDataOjectId(string memory x) public {\r\n    require(msg.sender == owner);\r\n    dataObjectId = x;\r\n    downloadable = true;\r\n  }\r\n\r\n  function getDataObjectId(uint256 nonce, bytes32 signature) public returns(string memory) {\r\n      require(!usedNonces[nonce]);\r\n      usedNonces[nonce] = true;\r\n      \r\n      bytes32 message = keccak256(abi.encodePacked(msg.sender, nonce, this));\r\n      \r\n      require(message == signature);\r\n      string memory resId = dataObjectId; // Remove assigned dataOjectId value once it returns\r\n      initDataObjectId();\r\n      return resId;\r\n  }\r\n\r\n  ///If receiver doesn't take data object ID within 5 minutes, owner remove ID \r\n  function expireDataObjectId() public {\r\n    //Todo - implement timer to check it over 5 minutes since owner assigned the ID\r\n    require(msg.sender == owner);\r\n    initDataObjectId();\r\n  }\r\n  \r\n  function initDataObjectId() internal{\r\n    delete dataObjectId;\r\n    downloadable = false;\r\n  }\r\n\r\n}",
  "sourcePath": "C:/Users/byeun/workspace/bbdfs-v1/contracts/DataReporting.sol",
  "compiler": {
    "name": "solc",
    "version": "0.5.0+commit.1d4f565a.Emscripten.clang"
  },
  "schemaVersion": "3.0.1",
  "updatedAt": "2019-12-04T06:54:14.787Z",
  "devdoc": {
    "methods": {}
  },
  "userdoc": {
    "methods": {
      "expireDataObjectId()": {
        "notice": "If receiver doesn't take data object ID within 5 minutes, owner remove ID "
      }
    }
  }
}